{
  "_format": "hh-sol-artifact-1",
  "contractName": "Donation",
  "sourceName": "contracts/Donation.sol",
  "abi": [
    {
      "inputs": [],
      "stateMutability": "nonpayable",
      "type": "constructor"
    },
    {
      "anonymous": false,
      "inputs": [
        {
          "indexed": true,
          "internalType": "uint256",
          "name": "transactionId",
          "type": "uint256"
        },
        {
          "indexed": false,
          "internalType": "string",
          "name": "ngoId",
          "type": "string"
        },
        {
          "indexed": false,
          "internalType": "string",
          "name": "donorId",
          "type": "string"
        },
        {
          "indexed": false,
          "internalType": "string",
          "name": "cause",
          "type": "string"
        },
        {
          "indexed": false,
          "internalType": "uint256",
          "name": "amount",
          "type": "uint256"
        },
        {
          "indexed": false,
          "internalType": "uint256",
          "name": "timestamp",
          "type": "uint256"
        }
      ],
      "name": "DonationReceived",
      "type": "event"
    },
    {
      "anonymous": false,
      "inputs": [
        {
          "indexed": true,
          "internalType": "uint256",
          "name": "transactionId",
          "type": "uint256"
        },
        {
          "indexed": false,
          "internalType": "string",
          "name": "ngoId",
          "type": "string"
        },
        {
          "indexed": false,
          "internalType": "string",
          "name": "receiverId",
          "type": "string"
        },
        {
          "indexed": false,
          "internalType": "string",
          "name": "cause",
          "type": "string"
        },
        {
          "indexed": false,
          "internalType": "uint256",
          "name": "amount",
          "type": "uint256"
        },
        {
          "indexed": false,
          "internalType": "uint256",
          "name": "timestamp",
          "type": "uint256"
        },
        {
          "indexed": false,
          "internalType": "bytes32",
          "name": "verificationHash",
          "type": "bytes32"
        }
      ],
      "name": "FundsSpent",
      "type": "event"
    },
    {
      "anonymous": false,
      "inputs": [
        {
          "indexed": false,
          "internalType": "string",
          "name": "ngoId",
          "type": "string"
        },
        {
          "indexed": false,
          "internalType": "uint256",
          "name": "newBalance",
          "type": "uint256"
        },
        {
          "indexed": false,
          "internalType": "string",
          "name": "action",
          "type": "string"
        }
      ],
      "name": "NgoBalanceUpdated",
      "type": "event"
    },
    {
      "inputs": [
        {
          "internalType": "uint256",
          "name": "limit",
          "type": "uint256"
        }
      ],
      "name": "getActiveNgoIds",
      "outputs": [
        {
          "internalType": "string[]",
          "name": "",
          "type": "string[]"
        }
      ],
      "stateMutability": "view",
      "type": "function"
    },
    {
      "inputs": [
        {
          "internalType": "uint256",
          "name": "index",
          "type": "uint256"
        }
      ],
      "name": "getIncomingDonation",
      "outputs": [
        {
          "internalType": "uint256",
          "name": "transactionId",
          "type": "uint256"
        },
        {
          "internalType": "string",
          "name": "ngoId",
          "type": "string"
        },
        {
          "internalType": "string",
          "name": "donorId",
          "type": "string"
        },
        {
          "internalType": "string",
          "name": "cause",
          "type": "string"
        },
        {
          "internalType": "uint256",
          "name": "amount",
          "type": "uint256"
        },
        {
          "internalType": "uint256",
          "name": "timestamp",
          "type": "uint256"
        }
      ],
      "stateMutability": "view",
      "type": "function"
    },
    {
      "inputs": [],
      "name": "getIncomingDonationsCount",
      "outputs": [
        {
          "internalType": "uint256",
          "name": "",
          "type": "uint256"
        }
      ],
      "stateMutability": "view",
      "type": "function"
    },
    {
      "inputs": [
        {
          "internalType": "string",
          "name": "ngoId",
          "type": "string"
        }
      ],
      "name": "getNgoBalance",
      "outputs": [
        {
          "internalType": "uint256",
          "name": "",
          "type": "uint256"
        }
      ],
      "stateMutability": "view",
      "type": "function"
    },
    {
      "inputs": [
        {
          "internalType": "string",
          "name": "ngoId",
          "type": "string"
        },
        {
          "internalType": "uint256",
          "name": "index",
          "type": "uint256"
        }
      ],
      "name": "getNgoIncomingTransaction",
      "outputs": [
        {
          "internalType": "uint256",
          "name": "transactionId",
          "type": "uint256"
        },
        {
          "internalType": "string",
          "name": "donorId",
          "type": "string"
        },
        {
          "internalType": "string",
          "name": "cause",
          "type": "string"
        },
        {
          "internalType": "uint256",
          "name": "amount",
          "type": "uint256"
        },
        {
          "internalType": "uint256",
          "name": "timestamp",
          "type": "uint256"
        }
      ],
      "stateMutability": "view",
      "type": "function"
    },
    {
      "inputs": [
        {
          "internalType": "string",
          "name": "ngoId",
          "type": "string"
        }
      ],
      "name": "getNgoIncomingTransactionCount",
      "outputs": [
        {
          "internalType": "uint256",
          "name": "",
          "type": "uint256"
        }
      ],
      "stateMutability": "view",
      "type": "function"
    },
    {
      "inputs": [
        {
          "internalType": "string",
          "name": "ngoId",
          "type": "string"
        },
        {
          "internalType": "uint256",
          "name": "index",
          "type": "uint256"
        }
      ],
      "name": "getNgoOutgoingTransaction",
      "outputs": [
        {
          "internalType": "uint256",
          "name": "transactionId",
          "type": "uint256"
        },
        {
          "internalType": "string",
          "name": "receiverId",
          "type": "string"
        },
        {
          "internalType": "string",
          "name": "cause",
          "type": "string"
        },
        {
          "internalType": "uint256",
          "name": "amount",
          "type": "uint256"
        },
        {
          "internalType": "uint256",
          "name": "timestamp",
          "type": "uint256"
        },
        {
          "internalType": "bytes32",
          "name": "verificationHash",
          "type": "bytes32"
        }
      ],
      "stateMutability": "view",
      "type": "function"
    },
    {
      "inputs": [
        {
          "internalType": "string",
          "name": "ngoId",
          "type": "string"
        }
      ],
      "name": "getNgoOutgoingTransactionCount",
      "outputs": [
        {
          "internalType": "uint256",
          "name": "",
          "type": "uint256"
        }
      ],
      "stateMutability": "view",
      "type": "function"
    },
    {
      "inputs": [
        {
          "internalType": "string",
          "name": "ngoId",
          "type": "string"
        }
      ],
      "name": "getNgoSummary",
      "outputs": [
        {
          "internalType": "uint256",
          "name": "totalReceived",
          "type": "uint256"
        },
        {
          "internalType": "uint256",
          "name": "totalSpent",
          "type": "uint256"
        },
        {
          "internalType": "uint256",
          "name": "incomingCount",
          "type": "uint256"
        },
        {
          "internalType": "uint256",
          "name": "outgoingCount",
          "type": "uint256"
        },
        {
          "internalType": "uint256",
          "name": "currentBalance",
          "type": "uint256"
        }
      ],
      "stateMutability": "view",
      "type": "function"
    },
    {
      "inputs": [
        {
          "internalType": "uint256",
          "name": "index",
          "type": "uint256"
        }
      ],
      "name": "getOutgoingTransaction",
      "outputs": [
        {
          "internalType": "uint256",
          "name": "transactionId",
          "type": "uint256"
        },
        {
          "internalType": "string",
          "name": "ngoId",
          "type": "string"
        },
        {
          "internalType": "string",
          "name": "receiverId",
          "type": "string"
        },
        {
          "internalType": "string",
          "name": "cause",
          "type": "string"
        },
        {
          "internalType": "uint256",
          "name": "amount",
          "type": "uint256"
        },
        {
          "internalType": "uint256",
          "name": "timestamp",
          "type": "uint256"
        },
        {
          "internalType": "bytes32",
          "name": "verificationHash",
          "type": "bytes32"
        }
      ],
      "stateMutability": "view",
      "type": "function"
    },
    {
      "inputs": [],
      "name": "getOutgoingTransactionsCount",
      "outputs": [
        {
          "internalType": "uint256",
          "name": "",
          "type": "uint256"
        }
      ],
      "stateMutability": "view",
      "type": "function"
    },
    {
      "inputs": [
        {
          "internalType": "uint256",
          "name": "",
          "type": "uint256"
        }
      ],
      "name": "incomingDonations",
      "outputs": [
        {
          "internalType": "uint256",
          "name": "transactionId",
          "type": "uint256"
        },
        {
          "internalType": "string",
          "name": "ngoId",
          "type": "string"
        },
        {
          "internalType": "string",
          "name": "donorId",
          "type": "string"
        },
        {
          "internalType": "string",
          "name": "cause",
          "type": "string"
        },
        {
          "internalType": "uint256",
          "name": "amount",
          "type": "uint256"
        },
        {
          "internalType": "uint256",
          "name": "timestamp",
          "type": "uint256"
        },
        {
          "internalType": "address",
          "name": "sender",
          "type": "address"
        }
      ],
      "stateMutability": "view",
      "type": "function"
    },
    {
      "inputs": [
        {
          "internalType": "string",
          "name": "",
          "type": "string"
        }
      ],
      "name": "ngoBalances",
      "outputs": [
        {
          "internalType": "uint256",
          "name": "",
          "type": "uint256"
        }
      ],
      "stateMutability": "view",
      "type": "function"
    },
    {
      "inputs": [
        {
          "internalType": "uint256",
          "name": "",
          "type": "uint256"
        }
      ],
      "name": "outgoingTransactions",
      "outputs": [
        {
          "internalType": "uint256",
          "name": "transactionId",
          "type": "uint256"
        },
        {
          "internalType": "string",
          "name": "ngoId",
          "type": "string"
        },
        {
          "internalType": "string",
          "name": "receiverId",
          "type": "string"
        },
        {
          "internalType": "string",
          "name": "cause",
          "type": "string"
        },
        {
          "internalType": "uint256",
          "name": "amount",
          "type": "uint256"
        },
        {
          "internalType": "uint256",
          "name": "timestamp",
          "type": "uint256"
        },
        {
          "internalType": "bytes32",
          "name": "verificationHash",
          "type": "bytes32"
        },
        {
          "internalType": "address",
          "name": "executor",
          "type": "address"
        }
      ],
      "stateMutability": "view",
      "type": "function"
    },
    {
      "inputs": [],
      "name": "owner",
      "outputs": [
        {
          "internalType": "address",
          "name": "",
          "type": "address"
        }
      ],
      "stateMutability": "view",
      "type": "function"
    },
    {
      "inputs": [
        {
          "internalType": "string",
          "name": "ngoId",
          "type": "string"
        },
        {
          "internalType": "string",
          "name": "donorId",
          "type": "string"
        },
        {
          "internalType": "string",
          "name": "cause",
          "type": "string"
        },
        {
          "internalType": "uint256",
          "name": "amount",
          "type": "uint256"
        },
        {
          "internalType": "uint256",
          "name": "timestamp",
          "type": "uint256"
        }
      ],
      "name": "recordDonation",
      "outputs": [
        {
          "internalType": "uint256",
          "name": "",
          "type": "uint256"
        }
      ],
      "stateMutability": "nonpayable",
      "type": "function"
    },
    {
      "inputs": [
        {
          "internalType": "string",
          "name": "ngoId",
          "type": "string"
        },
        {
          "internalType": "uint256",
          "name": "initialBalance",
          "type": "uint256"
        },
        {
          "internalType": "uint256",
          "name": "recordDate",
          "type": "uint256"
        }
      ],
      "name": "recordInitialBalance",
      "outputs": [
        {
          "internalType": "uint256",
          "name": "",
          "type": "uint256"
        }
      ],
      "stateMutability": "nonpayable",
      "type": "function"
    },
    {
      "inputs": [
        {
          "internalType": "string",
          "name": "ngoId",
          "type": "string"
        },
        {
          "internalType": "string",
          "name": "receiverId",
          "type": "string"
        },
        {
          "internalType": "string",
          "name": "cause",
          "type": "string"
        },
        {
          "internalType": "uint256",
          "name": "amount",
          "type": "uint256"
        },
        {
          "internalType": "uint256",
          "name": "timestamp",
          "type": "uint256"
        },
        {
          "internalType": "bytes32",
          "name": "verificationHash",
          "type": "bytes32"
        }
      ],
      "name": "recordSpending",
      "outputs": [
        {
          "internalType": "uint256",
          "name": "",
          "type": "uint256"
        }
      ],
      "stateMutability": "nonpayable",
      "type": "function"
    },
    {
      "inputs": [],
      "name": "totalDonations",
      "outputs": [
        {
          "internalType": "uint256",
          "name": "",
          "type": "uint256"
        }
      ],
      "stateMutability": "view",
      "type": "function"
    }
  ],
  "bytecode": "0x6080604052600160025534801561001557600080fd5b50600080546001600160a01b031916331790556128eb806100376000396000f3fe608060405234801561001057600080fd5b50600436106101215760003560e01c8063892c8aaa116100ad578063b2973ddc11610071578063b2973ddc146102e5578063c5b09eb8146102f8578063c67cff3114610300578063d3c1422b1461032b578063de2ed8931461035157600080fd5b8063892c8aaa146102685780638da5cb5b1461027b578063910ea955146102a657806398f89f13146102b95780639e0dc2c9146102dd57600080fd5b80636c90f6e8116100f45780636c90f6e8146101d05780636dc2f50a146101f65780637f54f3d31461020957806380329a661461022e57806388b831171461025557600080fd5b80630ab30752146101265780633eea870d1461014f57806344b58a2014610174578063501c18ef14610195575b600080fd5b610139610134366004611eb0565b61035a565b6040516101469190611f19565b60405180910390f35b61016261015d366004611eb0565b6105df565b60405161014696959493929190611f7b565b610187610182366004612073565b610864565b604051908152602001610146565b6101a86101a33660046120c1565b610a20565b604080519586526020860194909452928401919091526060830152608082015260a001610146565b6101e36101de366004611eb0565b610beb565b60405161014697969594939291906120fe565b6101876102043660046120c1565b610ddc565b61021c610217366004612166565b610e04565b604051610146969594939291906121ab565b61024161023c366004611eb0565b6110e5565b6040516101469897969594939291906121f5565b6101876102633660046120c1565b6112db565b610187610276366004612268565b611303565b60005461028e906001600160a01b031681565b6040516001600160a01b039091168152602001610146565b6101876102b436600461230c565b611670565b6102cc6102c7366004612166565b611944565b6040516101469594939291906123a6565b600354610187565b6101876102f33660046120c1565b611c0b565b600454610187565b61018761030e3660046120c1565b805160208183018101805160078252928201919093012091525481565b61033e610339366004611eb0565b611c1d565b60405161014697969594939291906123e6565b61018760015481565b606060008267ffffffffffffffff81111561037757610377611fd0565b6040519080825280602002602001820160405280156103aa57816020015b60608152602001906001900390816103955790505b50905060008060038054905085106103c4576003546103c6565b845b905060005b8181101561052e576000600382815481106103e8576103e8612445565b906000526020600020906007020160010180546104049061245b565b80601f01602080910402602001604051908101604052809291908181526020018280546104309061245b565b801561047d5780601f106104525761010080835404028352916020019161047d565b820191906000526020600020905b81548152906001019060200180831161046057829003601f168201915b505050505090506000805b858110156104d95782805190602001208782815181106104aa576104aa612445565b602002602001015180519060200120036104c757600191506104d9565b806104d1816124ab565b915050610488565b50801580156104e757508785105b1561051957818686815181106104ff576104ff612445565b60200260200101819052508480610515906124ab565b9550505b50508080610526906124ab565b9150506103cb565b5060008267ffffffffffffffff81111561054a5761054a611fd0565b60405190808252806020026020018201604052801561057d57816020015b60608152602001906001900390816105685790505b50905060005b838110156105d55784818151811061059d5761059d612445565b60200260200101518282815181106105b7576105b7612445565b602002602001018190525080806105cd906124ab565b915050610583565b5095945050505050565b6000606080606060008060038054905087106106165760405162461bcd60e51b815260040161060d906124c4565b60405180910390fd5b60006003888154811061062b5761062b612445565b90600052602060002090600702016040518060e00160405290816000820154815260200160018201805461065e9061245b565b80601f016020809104026020016040519081016040528092919081815260200182805461068a9061245b565b80156106d75780601f106106ac576101008083540402835291602001916106d7565b820191906000526020600020905b8154815290600101906020018083116106ba57829003601f168201915b505050505081526020016002820180546106f09061245b565b80601f016020809104026020016040519081016040528092919081815260200182805461071c9061245b565b80156107695780601f1061073e57610100808354040283529160200191610769565b820191906000526020600020905b81548152906001019060200180831161074c57829003601f168201915b505050505081526020016003820180546107829061245b565b80601f01602080910402602001604051908101604052809291908181526020018280546107ae9061245b565b80156107fb5780601f106107d0576101008083540402835291602001916107fb565b820191906000526020600020905b8154815290600101906020018083116107de57829003601f168201915b5050509183525050600482015460208083019190915260058301546040808401919091526006909301546001600160a01b03166060928301528351908401519284015191840151608085015160a090950151919d939c50919a5090985091965090945092505050565b600080546001600160a01b0316331461088f5760405162461bcd60e51b815260040161060d906124f1565b60008451116108b05760405162461bcd60e51b815260040161060d90612532565b6000831161090f5760405162461bcd60e51b815260206004820152602660248201527f496e697469616c2062616c616e6365206d75737420626520677265617465722060448201526507468616e20360d41b606482015260840161060d565b60006005856040516109219190612562565b90815260405190819003602001902054111561097a57600080516020612896833981519152846007866040516109579190612562565b90815260405190819003602001812054610971929161257e565b60405180910390a15b60006109d4856040518060400160405280600f81526020016e494e495449414c5f42414c414e434560881b815250604051806060016040528060328152602001612864603291398787156109ce5787611670565b42611670565b9050600080516020612896833981519152856007876040516109f69190612562565b90815260405190819003602001812054610a1092916125e3565b60405180910390a1949350505050565b6000808080808080805b600589604051610a3a9190612562565b90815260405190819003602001902054811015610ace57600360058a604051610a639190612562565b90815260200160405180910390208281548110610a8257610a82612445565b906000526020600020015481548110610a9d57610a9d612445565b90600052602060002090600702016004015483610aba919061262e565b925080610ac6816124ab565b915050610a2a565b5060005b600689604051610ae29190612562565b90815260405190819003602001902054811015610b7657600460068a604051610b0b9190612562565b90815260200160405180910390208281548110610b2a57610b2a612445565b906000526020600020015481548110610b4557610b45612445565b90600052602060002090600802016004015482610b62919061262e565b915080610b6e816124ab565b915050610ad2565b50818160058a604051610b899190612562565b9081526040519081900360200181205490600690610ba8908d90612562565b9081526040519081900360200181205490600790610bc7908e90612562565b90815260200160405180910390205496509650965096509650505091939590929450565b60038181548110610bfb57600080fd5b60009182526020909120600790910201805460018201805491935090610c209061245b565b80601f0160208091040260200160405190810160405280929190818152602001828054610c4c9061245b565b8015610c995780601f10610c6e57610100808354040283529160200191610c99565b820191906000526020600020905b815481529060010190602001808311610c7c57829003601f168201915b505050505090806002018054610cae9061245b565b80601f0160208091040260200160405190810160405280929190818152602001828054610cda9061245b565b8015610d275780601f10610cfc57610100808354040283529160200191610d27565b820191906000526020600020905b815481529060010190602001808311610d0a57829003601f168201915b505050505090806003018054610d3c9061245b565b80601f0160208091040260200160405190810160405280929190818152602001828054610d689061245b565b8015610db55780601f10610d8a57610100808354040283529160200191610db5565b820191906000526020600020905b815481529060010190602001808311610d9857829003601f168201915b5050505060048301546005840154600690940154929390929091506001600160a01b031687565b6000600682604051610dee9190612562565b9081526040519081900360200190205492915050565b60006060806000806000600688604051610e1e9190612562565b908152604051908190036020019020548710610e4c5760405162461bcd60e51b815260040161060d906124c4565b6000600689604051610e5e9190612562565b90815260200160405180910390208881548110610e7d57610e7d612445565b90600052602060002001549050600060048281548110610e9f57610e9f612445565b90600052602060002090600802016040518061010001604052908160008201548152602001600182018054610ed39061245b565b80601f0160208091040260200160405190810160405280929190818152602001828054610eff9061245b565b8015610f4c5780601f10610f2157610100808354040283529160200191610f4c565b820191906000526020600020905b815481529060010190602001808311610f2f57829003601f168201915b50505050508152602001600282018054610f659061245b565b80601f0160208091040260200160405190810160405280929190818152602001828054610f919061245b565b8015610fde5780601f10610fb357610100808354040283529160200191610fde565b820191906000526020600020905b815481529060010190602001808311610fc157829003601f168201915b50505050508152602001600382018054610ff79061245b565b80601f01602080910402602001604051908101604052809291908181526020018280546110239061245b565b80156110705780601f1061104557610100808354040283529160200191611070565b820191906000526020600020905b81548152906001019060200180831161105357829003601f168201915b505050918352505060048201546020820152600582015460408083019190915260068301546060808401919091526007909301546001600160a01b0316608092830152835190840151928401519184015160a085015160c090950151919f939e50919c50909a50919850909650945050505050565b600481815481106110f557600080fd5b6000918252602090912060089091020180546001820180549193509061111a9061245b565b80601f01602080910402602001604051908101604052809291908181526020018280546111469061245b565b80156111935780601f1061116857610100808354040283529160200191611193565b820191906000526020600020905b81548152906001019060200180831161117657829003601f168201915b5050505050908060020180546111a89061245b565b80601f01602080910402602001604051908101604052809291908181526020018280546111d49061245b565b80156112215780601f106111f657610100808354040283529160200191611221565b820191906000526020600020905b81548152906001019060200180831161120457829003601f168201915b5050505050908060030180546112369061245b565b80601f01602080910402602001604051908101604052809291908181526020018280546112629061245b565b80156112af5780601f10611284576101008083540402835291602001916112af565b820191906000526020600020905b81548152906001019060200180831161129257829003601f168201915b50505050600483015460058401546006850154600790950154939491939092506001600160a01b031688565b60006007826040516112ed9190612562565b9081526020016040518091039020549050919050565b600080546001600160a01b0316331461132e5760405162461bcd60e51b815260040161060d906124f1565b600087511161134f5760405162461bcd60e51b815260040161060d90612532565b6000841161139f5760405162461bcd60e51b815260206004820152601d60248201527f416d6f756e74206d7573742062652067726561746572207468616e2030000000604482015260640161060d565b836007886040516113b09190612562565b908152602001604051809103902054101561140d5760405162461bcd60e51b815260206004820152601860248201527f496e73756666696369656e74204e474f2062616c616e63650000000000000000604482015260640161060d565b600280546000918261141e836124ab565b91905055905060006040518061010001604052808381526020018a81526020018981526020018881526020018781526020018660001461145e5786611460565b425b815260208082018790523360409092019190915260048054600181018255600091909152825160089091027f8a35acfbc15ff81a39ae7d344fd709f28e8600b4aa8c65c6b64bfe7fe36bd19b810191825591830151929350839290917f8a35acfbc15ff81a39ae7d344fd709f28e8600b4aa8c65c6b64bfe7fe36bd19c01906114e99082612696565b50604082015160028201906114fe9082612696565b50606082015160038201906115139082612696565b506080820151816004015560a0820151816005015560c0820151816006015560e08201518160070160006101000a8154816001600160a01b0302191690836001600160a01b0316021790555050506006896040516115719190612562565b90815260405190819003602001902060045461158f90600190612756565b8154600181018355600092835260209092209091015560405186906007906115b8908c90612562565b908152602001604051809103902060008282546115d59190612756565b92505081905550817f88352f5d5cfd748ec5a7b2a09e86f681280142b10d40c42a4ab951494eb1b0fb8a8a8a8a8660a001518a60405161161a96959493929190612769565b60405180910390a26000805160206128968339815191528960078b6040516116429190612562565b9081526040519081900360200181205461165c92916127a2565b60405180910390a150979650505050505050565b6000808651116116925760405162461bcd60e51b815260040161060d90612532565b600083116116e25760405162461bcd60e51b815260206004820152601d60248201527f416d6f756e74206d7573742062652067726561746572207468616e2030000000604482015260640161060d565b60028054600091826116f3836124ab565b91905055905060006040518060e00160405280838152602001898152602001888152602001878152602001868152602001856000146117325785611734565b425b81523360209182015260038054600181018255600091909152825160079091027fc2575a0e9e593c00f959f8c92f12db2869c3395a3b0502d05e2516446f71f85b810191825591830151929350839290917fc2575a0e9e593c00f959f8c92f12db2869c3395a3b0502d05e2516446f71f85c01906117b29082612696565b50604082015160028201906117c79082612696565b50606082015160038201906117dc9082612696565b506080820151816004015560a0820151816005015560c08201518160060160006101000a8154816001600160a01b0302191690836001600160a01b0316021790555050506005886040516118309190612562565b90815260405190819003602001902060035461184e90600190612756565b81546001818101845560009384526020842090910191909155805487929061187790849061262e565b925050819055508460078960405161188f9190612562565b908152602001604051809103902060008282546118ac919061262e565b92505081905550817ff3e2c30e32e68fbd649651204d04d462200f326c12bbef41909f18d3244c6f3e898989898660a001516040516118ef9594939291906127e6565b60405180910390a26000805160206128968339815191528860078a6040516119179190612562565b90815260405190819003602001812054611931929161281f565b60405180910390a1509695505050505050565b600060608060008060058760405161195c9190612562565b90815260405190819003602001902054861061198a5760405162461bcd60e51b815260040161060d906124c4565b600060058860405161199c9190612562565b908152602001604051809103902087815481106119bb576119bb612445565b906000526020600020015490506000600382815481106119dd576119dd612445565b90600052602060002090600702016040518060e001604052908160008201548152602001600182018054611a109061245b565b80601f0160208091040260200160405190810160405280929190818152602001828054611a3c9061245b565b8015611a895780601f10611a5e57610100808354040283529160200191611a89565b820191906000526020600020905b815481529060010190602001808311611a6c57829003601f168201915b50505050508152602001600282018054611aa29061245b565b80601f0160208091040260200160405190810160405280929190818152602001828054611ace9061245b565b8015611b1b5780601f10611af057610100808354040283529160200191611b1b565b820191906000526020600020905b815481529060010190602001808311611afe57829003601f168201915b50505050508152602001600382018054611b349061245b565b80601f0160208091040260200160405190810160405280929190818152602001828054611b609061245b565b8015611bad5780601f10611b8257610100808354040283529160200191611bad565b820191906000526020600020905b815481529060010190602001808311611b9057829003601f168201915b50505091835250506004820154602082015260058201546040808301919091526006909201546001600160a01b031660609182015282519183015190830151608084015160a090940151929d919c509a509198509650945050505050565b6000600582604051610dee9190612562565b6000606080606060008060006004805490508810611c4d5760405162461bcd60e51b815260040161060d906124c4565b600060048981548110611c6257611c62612445565b90600052602060002090600802016040518061010001604052908160008201548152602001600182018054611c969061245b565b80601f0160208091040260200160405190810160405280929190818152602001828054611cc29061245b565b8015611d0f5780601f10611ce457610100808354040283529160200191611d0f565b820191906000526020600020905b815481529060010190602001808311611cf257829003601f168201915b50505050508152602001600282018054611d289061245b565b80601f0160208091040260200160405190810160405280929190818152602001828054611d549061245b565b8015611da15780601f10611d7657610100808354040283529160200191611da1565b820191906000526020600020905b815481529060010190602001808311611d8457829003601f168201915b50505050508152602001600382018054611dba9061245b565b80601f0160208091040260200160405190810160405280929190818152602001828054611de69061245b565b8015611e335780601f10611e0857610100808354040283529160200191611e33565b820191906000526020600020905b815481529060010190602001808311611e1657829003601f168201915b50505091835250506004820154602080830191909152600583015460408084019190915260068401546060808501919091526007909401546001600160a01b031660809384015284519185015190850151938501519285015160a086015160c090960151929f919e50939c50919a50919850919650945092505050565b600060208284031215611ec257600080fd5b5035919050565b60005b83811015611ee4578181015183820152602001611ecc565b50506000910152565b60008151808452611f05816020860160208601611ec9565b601f01601f19169290920160200192915050565b6000602080830181845280855180835260408601915060408160051b870101925083870160005b82811015611f6e57603f19888603018452611f5c858351611eed565b94509285019290850190600101611f40565b5092979650505050505050565b86815260c060208201526000611f9460c0830188611eed565b8281036040840152611fa68188611eed565b90508281036060840152611fba8187611eed565b6080840195909552505060a00152949350505050565b634e487b7160e01b600052604160045260246000fd5b600082601f830112611ff757600080fd5b813567ffffffffffffffff8082111561201257612012611fd0565b604051601f8301601f19908116603f0116810190828211818310171561203a5761203a611fd0565b8160405283815286602085880101111561205357600080fd5b836020870160208301376000602085830101528094505050505092915050565b60008060006060848603121561208857600080fd5b833567ffffffffffffffff81111561209f57600080fd5b6120ab86828701611fe6565b9660208601359650604090950135949350505050565b6000602082840312156120d357600080fd5b813567ffffffffffffffff8111156120ea57600080fd5b6120f684828501611fe6565b949350505050565b87815260e06020820152600061211760e0830189611eed565b82810360408401526121298189611eed565b9050828103606084015261213d8188611eed565b6080840196909652505060a08101929092526001600160a01b031660c090910152949350505050565b6000806040838503121561217957600080fd5b823567ffffffffffffffff81111561219057600080fd5b61219c85828601611fe6565b95602094909401359450505050565b86815260c0602082015260006121c460c0830188611eed565b82810360408401526121d68188611eed565b60608401969096525050608081019290925260a0909101529392505050565b60006101008a835280602084015261220f8184018b611eed565b90508281036040840152612223818a611eed565b905082810360608401526122378189611eed565b6080840197909752505060a081019390935260c08301919091526001600160a01b031660e090910152949350505050565b60008060008060008060c0878903121561228157600080fd5b863567ffffffffffffffff8082111561229957600080fd5b6122a58a838b01611fe6565b975060208901359150808211156122bb57600080fd5b6122c78a838b01611fe6565b965060408901359150808211156122dd57600080fd5b506122ea89828a01611fe6565b945050606087013592506080870135915060a087013590509295509295509295565b600080600080600060a0868803121561232457600080fd5b853567ffffffffffffffff8082111561233c57600080fd5b61234889838a01611fe6565b9650602088013591508082111561235e57600080fd5b61236a89838a01611fe6565b9550604088013591508082111561238057600080fd5b5061238d88828901611fe6565b9598949750949560608101359550608001359392505050565b85815260a0602082015260006123bf60a0830187611eed565b82810360408401526123d18187611eed565b60608401959095525050608001529392505050565b87815260e0602082015260006123ff60e0830189611eed565b82810360408401526124118189611eed565b905082810360608401526124258188611eed565b6080840196909652505060a081019290925260c090910152949350505050565b634e487b7160e01b600052603260045260246000fd5b600181811c9082168061246f57607f821691505b60208210810361248f57634e487b7160e01b600052602260045260246000fd5b50919050565b634e487b7160e01b600052601160045260246000fd5b6000600182016124bd576124bd612495565b5060010190565b602080825260139082015272496e646578206f7574206f6620626f756e647360681b604082015260600190565b60208082526021908201527f4f6e6c79206f776e65722063616e2063616c6c20746869732066756e6374696f6040820152603760f91b606082015260800190565b6020808252601690820152754e474f2049442063616e6e6f7420626520656d70747960501b604082015260600190565b60008251612574818460208701611ec9565b9190910192915050565b6060815260006125916060830185611eed565b8360208401528281036040840152602381527f7761726e696e675f6f766572726964696e675f6578697374696e675f62616c616020820152626e636560e81b6040820152606081019150509392505050565b6060815260006125f66060830185611eed565b8360208401528281036040840152600f81526e696e697469616c5f62616c616e636560881b6020820152604081019150509392505050565b8082018082111561264157612641612495565b92915050565b601f82111561269157600081815260208120601f850160051c8101602086101561266e5750805b601f850160051c820191505b8181101561268d5782815560010161267a565b5050505b505050565b815167ffffffffffffffff8111156126b0576126b0611fd0565b6126c4816126be845461245b565b84612647565b602080601f8311600181146126f957600084156126e15750858301515b600019600386901b1c1916600185901b17855561268d565b600085815260208120601f198616915b8281101561272857888601518255948401946001909101908401612709565b50858210156127465787850151600019600388901b60f8161c191681555b5050505050600190811b01905550565b8181038181111561264157612641612495565b60c08152600061277c60c0830189611eed565b828103602084015261278e8189611eed565b905082810360408401526121d68188611eed565b6060815260006127b56060830185611eed565b836020840152828103604084015260088152677370656e64696e6760c01b6020820152604081019150509392505050565b60a0815260006127f960a0830188611eed565b828103602084015261280b8188611eed565b905082810360408401526123d18187611eed565b6060815260006128326060830185611eed565b836020840152828103604084015260088152673237b730ba34b7b760c11b602082015260408101915050939250505056fe496e697469616c2062616e6b2062616c616e6365206265666f726520626c6f636b636861696e20696e746567726174696f6eaeaabdd6bfb623502c1021a92d38ddcd3c9763b658f302d2cb33a51f7b89dc14a264697066735822122083718a0e72f66990b760570f494a49536ab6357f14ed10e55e3395de2f037d0a64736f6c63430008140033",
  "linkReferences": {},
  "deployedLinkReferences": {}
}